S012000070776D5F6472617765722E73726563DA
S11300000C948F000C94A4000C94A4000C94A400F1
S11300100C94A4000C94A4000C94A4000C94A400CC
S11300200C94A4000C94A4000C94A4000C94A400BC
S11300300C94A4000C94A4000C94A4000C94A400AC
S11300400C94A4000C94A4000C94A4000C94A4009C
S11300500C94A400820CC30CC30CC30CC30CC30CBF
S1130060C30CC30CC30CC30C410CC30CC30CC30C96
S1130070C30CC30CC30CC30CC30CC30C000CC30CC7
S1130080C30CC30CC30CBF0BC30CC30CC30CC30CF9
S11300907E0BC30CC30CC30CC30CC30CC30CC30C2A
S11300A0C30CC30C3D0BC30CC30CC30CC30CC30C5B
S11300B0C30CC30CC30CC30CFC0AC30CC30CC30C8D
S11300C0C30CC30CC30CC30CC30CC30CBB0AC30CBE
S11300D0C30CC30CC30CC30CC30CC30CC30CC30CA4
S11300E07A0AC30CC30CC30CC30C390AC30CC30C6B
S11300F0C30CC30CF809C30CC30CC30CC30CC30C52
S1130100C30CC30CC30CC30CB709C30CC30CC30C82
S1130110C30CC30CC30CC30CC30CC30C760911244D
S11301201FBECFE5D8E0DEBFCDBF11E0A0E6B0E052
S1130130E0E3F6E202C005900D92A437B107D9F7C7
S11301400E94C90C0C9416130C94000088BB85B350
S11301508E7F85BB85B38D7F85BB85B3846085BB6E
S113016085E08A95F1F7000085B38B7F85BB8FE32B
S11301709FE10197F1F700C00000089588BB85B3A3
S1130180816085BB85B38D7F85BB85B3846085BB6A
S113019085E08A95F1F7000085B38B7F85BB8FE3FB
S11301A09FE10197F1F700C0000008958FEF87BB2E
S11301B084B3816084BB84B3826084BB84B3846071
S11301C084BB2FEF89EF90E0215080409040E1F70D
S11301D000C0000088E30E94A6008FE00E94A600F1
S11301E081E00E94A6008FE39FE10197F1F700C030
S11301F0000086E00E94A600089581E00E94A60007
S11302008FE39FE10197F1F700C000000895CF93B9
S1130210DF93EC0103C021960E94BE008881811106
S1130220FACFDF91CF9108950F931F93CF93DF936C
S1130230CDB7DEB72B970FB6F894DEBF0FBECDBF98
S11302409F938F937F936F9380E690E09F938F9318
S11302508E010F5F1F4F1F930F930E942C10C80134
S11302600E9407010FB6F894DEBF0FBECDBF2B96D8
S11302700FB6F894DEBF0FBECDBFDF91CF911F91B3
S11302800F910895813031F050F0823029F083309D
S113029029F00895605C03C06C5E01C06C5A862F1F
S11302A080680E94A60008950E94D6000E94FD0066
S11302B060E080E00E94420183E690E00E94070132
S11302C060E081E00E94420181E790E00E94070122
S11302D068E082E00E94420184E890E00E94070105
S11302E060E083E00E94420189E890E00E940701F7
S11302F02FEF8FE493EC215080409040E1F700C051
S113030000000E94FD0060E081E00E9442018EE94D
S113031090E00E94070183EB90E00E9407012FEF19
S11303208FE493EC215080409040E1F700C000003E
S11303300E94FD000895CF93DF93CDB7DEB76F978A
S11303400FB6F894DEBF0FBECDBF9AE0ECECF0E040
S11303509E012F5F3F4FD90101900D929A95E1F7CD
S1130360F90101900020E9F731978F01021B130B6B
S1130370682F70E088EE93E00E94DC0FF62E60E0B8
S113038082E00E94420181EC90E00E9407016F2DFF
S113039070E080E090E00E94140189EC90E00E94FB
S11303A00701F12C40E018C0242F30E0C9018F0D63
S11303B0911DB80177270E94DC0FE1E0F0E0EC0F1B
S11303C0FD1FE80FF91F9081EBE0F0E0EC0FFD1F3B
S11303D0E20FF31F90834F5F443130F31F8E60E0D0
S11303E083E00E944201CE010B960E9407012FEF89
S11303F085EA9EE0215080409040E1F700C0000073
S11304008F2D90E00196B80177270E94DC0FF82E1B
S1130410C9CFCF93DF93CDB7DEB7A2970FB6F894C9
S1130420DEBF0FBECDBF9DE0E4EEF0E09E012F5F86
S11304303F4FD90101900D929A95E1F7F90101908E
S11304400020E9F731978F01021B130B682F70E02E
S113045088EE93E00E94DC0F9B01E62ECB019927E6
S1130460AC01440F551F440F551F440F551F840FF3
S1130470951F6AE070E00E94DC0FD62EF22EF61A69
S113048060E082E00E94420186ED90E00E94070154
S11304906D2D70E080E090E00E94140189EC90E002
S11304A00E94070169E082E00E9442018CED90E025
S11304B00E9407016F2D70E080E090E00E9414011B
S11304C089EC90E00E94070169E081E00E9442010A
S11304D081EC90E00E9407016E2D70E080E090E0D6
S11304E00E94140189EC90E00E940701F12C40E085
S11304F018C0242F30E0C9018F0D911DB801772752
S11305000E94DC0FE1E0F0E0EC0FFD1FE80FF91FA3
S11305109081EEE0F0E0EC0FFD1FE20FF31F9083FB
S11305204F5F443130F31AA260E083E00E9442013D
S1130530CE010E960E9407012FEF85EA9EE021501E
S113054080409040E1F700C000008F2D90E00196BC
S1130550B80177270E94DC0FF82EC9CFCF93DF9321
S1130560CDB7DEB7A2970FB6F894DEBF0FBECDBFEE
S11305709DE0E1EFF0E09E012F5F3F4FD901019034
S11305800D929A95E1F7F90101900020E9F731976E
S11305908F01021B130B682F70E088EE93E00E941A
S11305A0DC0F9B01E62ECB019927880F991F880F3A
S11305B0991F880F991F6AE070E00E94DC0FD62E05
S11305C0F22EF61A60E082E00E94420186ED90E08D
S11305D00E9407016D2D70E080E090E00E941401FC
S11305E089EC90E00E94070169E082E00E944201E8
S11305F08CED90E00E9407016F2D70E080E090E0A8
S11306000E94140189EC90E00E94070169E081E0F6
S11306100E94420181EC90E00E9407016E2D70E07F
S113062080E090E00E94140189EC90E00E940701B0
S1130630F12C40E018C0242F30E0C9018F0D911D2A
S1130640B80177270E94DC0FE1E0F0E0EC0FFD1F1A
S1130650E80FF91F9081EEE0F0E0EC0FFD1FE20FD0
S1130660F31F90834F5F443130F31AA260E083E0BC
S11306700E944201CE010E960E9407012FEF85EAE7
S11306809EE0215080409040E1F700C000008F2D93
S113069090E00196B80177270E94DC0FF82EC9CFAD
S11306A0CF93DF93CDB7DEB7A0970FB6F894DEBF34
S11306B00FBECDBF9BE0E3EFF0E09E012F5F3F4F05
S11306C0D90101900D929A95E1F7F901019000206A
S11306D0E9F731978F01021B130B682F70E088EE46
S11306E093E00E94DC0FE62E9B013327A901440FFF
S11306F0551F420F531F9A01552314F42D5F3F4F8A
S11307003595279535952795D22EF62EF21A60E069
S113071082E00E94420186ED90E00E9407016D2D67
S113072070E080E090E00E94140189EC90E00E9467
S1130730070169E082E00E9442018CED90E00E9492
S113074007016F2D70E080E090E00E94140189ECB5
S113075090E00E94070169E081E00E94420181EC7F
S113076090E00E9407016E2D70E080E090E00E940E
S1130770140189EC90E00E940701F12C40E018C0BC
S1130780242F30E0C9018F0D911DB80177270E94F5
S1130790DC0FE1E0F0E0EC0FFD1FE80FF91F9081A2
S11307A0ECE0F0E0EC0FFD1FE20FF31F90834F5FCE
S11307B0443130F318A260E083E00E944201CE018C
S11307C00C960E9407012FEF85EA9EE0215080409D
S11307D09040E1F700C000008F2D90E00196B80131
S11307E077270E94DC0FF82EC9CFCF93DF93CDB7C4
S11307F0DEB7A2970FB6F894DEBF0FBECDBF9DE063
S1130800EEEFF0E09E012F5F3F4FD90101900D9272
S11308109A95E1F7F90101900020E9F731978F01EA
S1130820021B130B682F70E088EE93E00E94DC0F2C
S11308309B01E62EAB015527CA01880F991F880F2B
S1130840991F880F991F841B950B6AE070E00E9422
S1130850DC0FD62EF22EF61A60E082E00E944201EE
S113086086ED90E00E9407016D2D70E080E090E03D
S11308700E94140189EC90E00E94070169E082E083
S11308800E9442018CED90E00E9407016F2D70E000
S113089080E090E00E94140189EC90E00E9407013E
S11308A069E081E00E94420181EC90E00E9407012E
S11308B06E2D70E080E090E00E94140189EC90E0DD
S11308C00E940701F12C40E018C0242F30E0C90138
S11308D08F0D911DB80177270E94DC0FE1E0F0E055
S11308E0EC0FFD1FE80FF91F9081EEE0F0E0EC0F34
S11308F0FD1FE20FF31F90834F5F443130F31AA2C0
S113090060E083E00E944201CE010E960E9407013E
S11309102FEF85EA9EE0215080409040E1F700C02F
S113092000008F2D90E00196B80177270E94DC0F1C
S1130930F82EC9CFCF93DF93CDB7DEB7A2970FB60A
S1130940F894DEBF0FBECDBF9DE0EBE0F1E09E0169
S11309502F5F3F4FD90101900D929A95E1F7F9016C
S113096001900020E9F731978F01021B130B682FC8
S113097070E088EE93E00E94DC0F9B01E62ECB0131
S11309809927AC01440F551F840F951F880F991F99
S11309906AE070E00E94DC0FD62EF22EF61A60E0B8
S11309A082E00E94420186ED90E00E9407016D2DD5
S11309B070E080E090E00E94140189EC90E00E94D5
S11309C0070169E082E00E9442018CED90E00E9400
S11309D007016F2D70E080E090E00E94140189EC23
S11309E090E00E94070169E081E00E94420181ECED
S11309F090E00E9407016E2D70E080E090E00E947C
S1130A00140189EC90E00E940701F12C40E018C029
S1130A10242F30E0C9018F0D911DB80177270E9462
S1130A20DC0FE1E0F0E0EC0FFD1FE80FF91F90810F
S1130A30EEE0F0E0EC0FFD1FE20FF31F90834F5F39
S1130A40443130F31AA260E083E00E944201CE01F7
S1130A500E960E9407012FEF85EA9EE02150804008
S1130A609040E1F700C000008F2D90E00196B8019E
S1130A7077270E94DC0FF82EC9CFCF93DF93CDB731
S1130A80DEB7A2970FB6F894DEBF0FBECDBF9DE0D0
S1130A90E8E1F1E09E012F5F3F4FD90101900D92F3
S1130AA09A95E1F7F90101900020E9F731978F0158
S1130AB0021B130B682F70E088EE93E00E94DC0F9A
S1130AC09B01E62ECB019927AC01440F551F440F1F
S1130AD0551F840F951F6AE070E00E94DC0FD62E2C
S1130AE0F22EF61A60E082E00E94420186ED90E068
S1130AF00E9407016D2D70E080E090E00E941401D7
S1130B0089EC90E00E94070169E082E00E944201C2
S1130B108CED90E00E9407016F2D70E080E090E082
S1130B200E94140189EC90E00E94070169E081E0D1
S1130B300E94420181EC90E00E9407016E2D70E05A
S1130B4080E090E00E94140189EC90E00E9407018B
S1130B50F12C40E018C0242F30E0C9018F0D911D05
S1130B60B80177270E94DC0FE1E0F0E0EC0FFD1FF5
S1130B70E80FF91F9081EEE0F0E0EC0FFD1FE20FAB
S1130B80F31F90834F5F443130F31AA260E083E097
S1130B900E944201CE010E960E9407012FEF85EAC2
S1130BA09EE0215080409040E1F700C000008F2D6E
S1130BB090E00196B80177270E94DC0FF82EC9CF88
S1130BC0CF93DF93CDB7DEB7A2970FB6F894DEBF0D
S1130BD00FBECDBF9DE0E5E2F1E09E012F5F3F4FE8
S1130BE0D90101900D929A95E1F7F9010190002045
S1130BF0E9F731978F01021B130B682F70E088EE21
S1130C0093E00E94DC0F9B01E62ECB019927880F0D
S1130C10991F880F991F6AE070E00E94DC0FD62E9E
S1130C20F22EF61A60E082E00E94420186ED90E026
S1130C300E9407016D2D70E080E090E00E94140195
S1130C4089EC90E00E94070169E082E00E94420181
S1130C508CED90E00E9407016F2D70E080E090E041
S1130C600E94140189EC90E00E94070169E081E090
S1130C700E94420181EC90E00E9407016E2D70E019
S1130C8080E090E00E94140189EC90E00E9407014A
S1130C90F12C40E018C0242F30E0C9018F0D911DC4
S1130CA0B80177270E94DC0FE1E0F0E0EC0FFD1FB4
S1130CB0E80FF91F9081EEE0F0E0EC0FFD1FE20F6A
S1130CC0F31F90834F5F443130F31AA260E083E056
S1130CD00E944201CE010E960E9407012FEF85EA81
S1130CE09EE0215080409040E1F700C000008F2D2D
S1130CF090E00196B80177270E94DC0FF82EC9CF47
S1130D00CF93DF93CDB7DEB7A2970FB6F894DEBFCB
S1130D100FBECDBF9DE0E2E3F1E09E012F5F3F4FA8
S1130D20D90101900D929A95E1F7F9010190002003
S1130D30E9F731978F01021B130B682F70E088EEDF
S1130D4093E00E94DC0F9B01E62ECB019927AC01B6
S1130D50440F551F840F951F6AE070E00E94DC0F5A
S1130D60D62EF22EF61A60E082E00E94420186ED51
S1130D7090E00E9407016D2D70E080E090E00E94F9
S1130D80140189EC90E00E94070169E082E00E946E
S1130D9042018CED90E00E9407016F2D70E080E02D
S1130DA090E00E94140189EC90E00E94070169E040
S1130DB081E00E94420181EC90E00E9407016E2DC7
S1130DC070E080E090E00E94140189EC90E00E94C1
S1130DD00701F12C40E018C0242F30E0C9018F0D29
S1130DE0911DB80177270E94DC0FE1E0F0E0EC0FE1
S1130DF0FD1FE80FF91F9081EEE0F0E0EC0FFD1FFE
S1130E00E20FF31F90834F5F443130F31AA260E086
S1130E1083E00E944201CE010E960E9407012FEF4B
S1130E2085EA9EE0215080409040E1F700C0000038
S1130E308F2D90E00196B80177270E94DC0FF82EE1
S1130E40C9CFCF93DF93CDB7DEB7A0970FB6F89491
S1130E50DEBF0FBECDBF9BE0E7E2F1E09E012F5F56
S1130E603F4FD90101900D929A95E1F7F901019054
S1130E700020E9F731978F01021B130B682F70E0F4
S1130E8088EE93E00E94DC0FE62E9B013327359514
S1130E90279535952795D22EF62EF21A60E082E03A
S1130EA00E94420186ED90E00E9407016D2D70E0E2
S1130EB080E090E00E94140189EC90E00E94070118
S1130EC069E082E00E9442018CED90E00E940701FB
S1130ED06F2D70E080E090E00E94140189EC90E0B6
S1130EE00E94070169E081E00E94420181EC90E0E8
S1130EF00E9407016E2D70E080E090E00E941401D2
S1130F0089EC90E00E940701F12C40E018C0242FE6
S1130F1030E0C9018F0D911DB80177270E94DC0FC5
S1130F20E1E0F0E0EC0FFD1FE80FF91F9081ECE029
S1130F30F0E0EC0FFD1FE20FF31F90834F5F44318D
S1130F4030F318A260E083E00E944201CE010C96C7
S1130F500E9407012FEF85EA9EE0215080409040D7
S1130F60E1F700C000008F2D90E00196B8017727CB
S1130F700E94DC0FF82EC9CFCF93DF93CDB7DEB735
S1130F80A2970FB6F894DEBF0FBECDBF9DE0EFE38E
S1130F90F1E09E012F5F3F4FD90101900D929A9588
S1130FA0E1F7F90101900020E9F731978F01021B65
S1130FB0130B682F70E088EE93E00E94DC0F9B0116
S1130FC0E62ECB019927880F991F6AE070E00E94F2
S1130FD0DC0FD62EF22EF61A60E082E00E94420167
S1130FE086ED90E00E9407016D2D70E080E090E0B6
S1130FF00E94140189EC90E00E94070169E082E0FC
S11310000E9442018CED90E00E9407016F2D70E078
S113101080E090E00E94140189EC90E00E940701B6
S113102069E081E00E94420181EC90E00E940701A6
S11310306E2D70E080E090E00E94140189EC90E055
S11310400E940701F12C40E018C0242F30E0C901B0
S11310508F0D911DB80177270E94DC0FE1E0F0E0CD
S1131060EC0FFD1FE80FF91F9081EEE0F0E0EC0FAC
S1131070FD1FE20FF31F90834F5F443130F31AA238
S113108060E083E00E944201CE010E960E940701B7
S11310902FEF85EA9EE0215080409040E1F700C0A8
S11310A000008F2D90E00196B80177270E94DC0F95
S11310B0F82EC9CFCF93DF93CDB7DEB7A2970FB683
S11310C0F894DEBF0FBECDBF9DE0ECE4F1E09E01DD
S11310D02F5F3F4FD90101900D929A95E1F7F901E5
S11310E001900020E9F731978F01021B130B682F41
S11310F070E088EE93E00E94DC0F9B01E62ECB01AA
S113110099276AE070E00E94DC0FD62EF22EF61AC0
S113111060E082E00E94420186ED90E00E940701B7
S11311206D2D70E080E090E00E94140189EC90E065
S11311300E94070169E082E00E9442018CED90E088
S11311400E9407016F2D70E080E090E00E9414017E
S113115089EC90E00E94070169E081E00E9442016D
S113116081EC90E00E9407016E2D70E080E090E039
S11311700E94140189EC90E00E940701F12C40E0E8
S113118018C0242F30E0C9018F0D911DB8017727B5
S11311900E94DC0FE1E0F0E0EC0FFD1FE80FF91F07
S11311A09081EEE0F0E0EC0FFD1FE20FF31F90835F
S11311B04F5F443130F31AA260E083E00E944201A1
S11311C0CE010E960E9407012FEF85EA9EE0215082
S11311D080409040E1F700C000008F2D90E0019620
S11311E0B80177270E94DC0FF82EC9CFCF93DF9385
S11311F0CDB7DEB76E970FB6F894DEBF0FBECDBF86
S113120099E0E9E5F1E09E012F5F3F4FD90101909C
S11312100D929A95E1F7F90101900020E9F73197D1
S11312208F01021B130B682F70E088EE93E00E947D
S1131230DC0FF62E60E082E00E94420181EC90E037
S11312400E9407016F2D70E080E090E00E9414017D
S113125089EC90E00E940701F12C40E018C0242F93
S113126030E0C9018F0D911DB80177270E94DC0F72
S1131270E1E0F0E0EC0FFD1FE80FF91F9081EAE0D8
S1131280F0E0EC0FFD1FE20FF31F90834F5F44313A
S113129030F31E8E60E083E00E944201CE010A9684
S11312A00E9407012FEF85EA9EE021508040904084
S11312B0E1F700C000008F2D90E00196B801772778
S11312C00E94DC0FF82EC9CFCF92DF92EF92FF92EB
S11312D0CF93C62E462F50E04536510508F053C330
S11312E0C82FFA01E65DFF4F0C94121041E065E04F
S11312F083E00E94D20C0E944B0DD12CE12CF12CE6
S1131300C701B6010E94BD0EAB01BC018C2F90E059
S11313100E945E0D0E94D6000E94FD0060E080E005
S11313200E94420182E691E00E9407016C2F70E066
S113133080E090E00E94140188E691E00E94070199
S113134060E081E00E9442018BE691E00E94070187
S1131350C701B6010E94140181E791E00E940701D0
S113136060E083E00E9442018C2F0E949B0141E0D7
S113137065E083E00E94D20C0E944B0DD12CE12C3D
S1131380F12CC701B6010E94BD0EAB01BC018C2F2C
S113139090E00E945E0D0E94D6000E94FD0060E075
S11313A080E00E94420182E691E00E9407016C2FD6
S11313B070E080E090E00E94140188E691E00E94D1
S11313C0070160E081E00E9442018BE691E00E9407
S11313D00701C701B6010E94140181E791E00E9450
S11313E0070160E083E00E9442018C2F0E94090201
S11313F041E065E083E00E94D20C0E944B0DD12CA9
S1131400E12CF12CC701B6010E94BD0EAB01BC0159
S11314108C2F90E00E945E0D0E94D6000E94FD0079
S113142060E080E00E94420182E691E00E940701B0
S11314306C2F70E080E090E00E94140188E691E057
S11314400E94070160E081E00E9442018BE691E086
S11314500E940701C701B6010E94140181E791E0CF
S11314600E94070160E083E00E9442018C2F0E94E9
S1131470AE0241E065E083E00E94D20C0E944B0D75
S1131480D12CE12CF12CC701B6010E94BD0EAB0199
S1131490BC018C2F90E00E945E0D0E94D6000E9439
S11314A0FD0060E080E00E94420182E691E00E943B
S11314B007016C2F70E080E090E00E94140188E640
S11314C091E00E94070160E081E00E9442018BE606
S11314D091E00E940701C701B6010E94140181E74F
S11314E091E00E94070160E083E00E9442018C2F9A
S11314F00E94500341E065E083E00E94D20C0E9408
S11315004B0DD12CE12CF12CC701B6010E94BD0E6C
S1131510AB01BC018C2F90E00E945E0D0E94D600AE
S11315200E94FD0060E080E00E94420182E691E0BA
S11315300E9407016C2F70E080E090E00E9414018B
S113154088E691E00E94070160E081E00E94420188
S11315508BE691E00E940701C701B6010E941401C5
S113156081E791E00E94070160E083E00E9442016C
S11315708C2F0E94F50341E065E083E00E94D20CC9
S11315800E944B0DD12CE12CF12CC701B6010E9415
S1131590BD0EAB01BC018C2F90E00E945E0D0E9439
S11315A0D6000E94FD0060E080E00E94420182E6D5
S11315B091E00E9407016C2F70E080E090E00E94AF
S11315C0140188E691E00E94070160E081E00E9436
S11315D042018BE691E00E940701C701B6010E9417
S11315E0140181E791E00E94070160E083E00E941A
S11315F042018C2F0E949A0441E065E083E00E943E
S1131600D20C0E944B0DD12CE12CF12CC701B60158
S11316100E94BD0EAB01BC018C2F90E00E945E0DB8
S11316200E94D6000E94FD0060E080E00E9442011A
S113163082E691E00E9407016C2F70E080E090E068
S11316400E94140188E691E00E94070160E081E0B5
S11316500E9442018BE691E00E940701C701B60196
S11316600E94140181E791E00E94070160E083E099
S11316700E9442018C2F0E943D0541E065E083E019
S11316800E94D20C0E944B0DD12CE12CF12CC701ED
S1131690B6010E94BD0EAB01BC018C2F90E00E94EC
S11316A05E0D0E94D6000E94FD0060E080E00E9472
S11316B0420182E691E00E9407016C2F70E080E015
S11316C090E00E94140188E691E00E94070160E026
S11316D081E00E9442018BE691E00E940701C7016C
S11316E0B6010E94140181E791E00E94070160E0C5
S11316F083E00E9442018C2F0E94E00541E065E0F6
S113170083E00E94D20C0E944B0DD12CE12CF12CD1
S1131710C701B6010E94BD0EAB01BC018C2F90E045
S11317200E945E0D0E94D6000E94FD0060E080E0F1
S11317300E94420182E691E00E9407016C2F70E052
S113174080E090E00E94140188E691E00E94070185
S113175060E081E00E9442018BE691E00E94070173
S1131760C701B6010E94140181E791E00E940701BC
S113177060E083E00E9442018C2F0E94800641E0D9
S113178065E083E00E94D20C0E944B0DD12CE12C29
S1131790F12CC701B6010E94BD0EAB01BC018C2F18
S11317A090E00E945E0D0E94D6000E94FD0060E061
S11317B080E00E94420182E691E00E9407016C2FC2
S11317C070E080E090E00E94140188E691E00E94BD
S11317D0070160E081E00E9442018BE691E00E94F3
S11317E00701C701B6010E94140181E791E00E943C
S11317F0070160E083E00E9442018C2F0E942107D0
S113180041E065E083E00E94D20C0E944B0DD12C94
S1131810E12CF12CC701B6010E94BD0EAB01BC0145
S11318208C2F90E00E945E0D0E94D6000E94FD0065
S113183060E080E00E94420182E691E00E9407019C
S11318406C2F70E080E090E00E94140188E691E043
S11318500E94070160E081E00E9442018BE691E072
S11318600E940701C701B6010E94140181E791E0BB
S11318700E94070160E083E00E9442018C2F0E94D5
S1131880BC0741E065E083E00E94D20C0E944B0D4E
S1131890D12CE12CF12CC701B6010E94BD0EAB0185
S11318A0BC018C2F90E00E945E0D0E94D6000E9425
S11318B0FD0060E080E00E94420182E691E00E9427
S11318C007016C2F70E080E090E00E94140188E62C
S11318D091E00E94070160E081E00E9442018BE6F2
S11318E091E00E940701C701B6010E94140181E73B
S11318F091E00E94070160E083E00E9442018C2F86
S11319000E945A0841E065E083E00E94D20C0E94E4
S11319104B0DD12CE12CF12CC701B6010E94BD0E58
S1131920AB01BC018C2F90E00E945E0D0E94D6009A
S11319300E94FD0060E080E00E94420182E691E0A6
S11319400E9407016C2F70E080E090E00E94140177
S113195088E691E00E94070160E081E00E94420174
S11319608BE691E00E940701C701B6010E941401B1
S113197081E791E00E94070160E083E00E94420158
S11319808C2F0E94F608CF91FF90EF90DF90CF90BC
S113199008950E9454016BE470E082E390E00E9499
S11319A06409FFCF813019F130F08230E1F18330E6
S11319B009F455C00895442319F0413069F008959D
S11319C02AB381E090E002C0880F991F6A95E2F77C
S11319D0809582238ABB08952AB381E090E002C0F7
S11319E0880F991F6A95E2F7822B8ABB08954423D6
S11319F019F0413069F0089527B381E090E002C006
S1131A00880F991F6A95E2F78095822387BB089512
S1131A1027B381E090E002C0880F991F6A95E2F72E
S1131A20822B87BB0895442319F0413069F008954F
S1131A3024B381E090E002C0880F991F6A95E2F711
S1131A408095822384BB089524B381E090E002C092
S1131A50880F991F6A95E2F7822B84BB089544236B
S1131A6019F0413069F0089521B381E090E002C09B
S1131A70880F991F6A95E2F78095822381BB0895A8
S1131A8021B381E090E002C0880F991F6A95E2F7C4
S1131A90822B81BB08958FB58E7F8FBD8FB58260F9
S1131AA08FBD8EB588608EBD8EB580618EBD8FB5BD
S1131AB08F7B8FBD8FB580688FBD0895CF92DF92E5
S1131AC0EF92FF92CF93DF93EC016A017B0120E058
S1131AD030E048EC52E4C701B6010E94170E181614
S1131AE094F19E0140E050E060E970ED83E090E005
S1131AF00E94F00F2150310937BD26BD66B577B578
S1131B006F5F7F4F80E090E00E94BD0EA7019601B9
S1131B100E946F0F20E030E048EC52E40E941C0E5B
S1131B2020E030E040E85FE30E94AA0D0E948E0EA0
S1131B307BBD6ABD8EB581608EBD8EB582608EBD63
S1131B408EB58B7F8EBDDF91CF91FF90EF90DF90AC
S1131B50CF9008955058BB27AA270E94C20D0C9419
S1131B60350F0E94270F38F00E942E0F20F039F411
S1131B709F3F19F426F40C94240F0EF4E095E7FB30
S1131B800C941E0FE92F0E94460F58F3BA176207F0
S1131B9073078407950720F079F4A6F50C94680F71
S1131BA00EF4E0950B2EBA2FA02D0B01B901900174
S1131BB00C01CA01A0011124FF27591B99F0593FB8
S1131BC050F4503E68F11A16F040A22F232F342F00
S1131BD04427585FF3CF469537952795A795F0404E
S1131BE05395C9F77EF41F16BA0B620B730B840B63
S1131BF0BAF09150A1F0FF0FBB1F661F771F881F1B
S1131C00C2F70EC0BA0F621F731F841F48F4879572
S1131C1077956795B795F7959E3F08F0B0CF939564
S1131C20880F08F09927EE0F9795879508950E94DD
S1131C30FA0E08F481E008950E94300E0C94350FDA
S1131C400E942E0F58F00E94270F40F029F45F3FA6
S1131C5029F00C941E0F51110C94690F0C94240F4D
S1131C600E94460F68F39923B1F3552391F3951B12
S1131C70550BBB27AA2762177307840738F09F5FA9
S1131C805F4F220F331F441FAA1FA9F335D00E2E16
S1131C903AF0E0E832D091505040E695001CCAF783
S1131CA02BD0FE2F29D0660F771F881FBB1F261746
S1131CB037074807AB07B0E809F0BB0B802DBF011D
S1131CC0FF2793585F4F3AF09E3F510578F00C94EC
S1131CD01E0F0C94690F5F3FE4F3983ED4F386958E
S1131CE077956795B795F7959F5FC9F7880F911D0D
S1131CF09695879597F90895E1E0660F771F881FF9
S1131D00BB1F621773078407BA0720F0621B730BAB
S1131D10840BBA0BEE1F88F7E09508950E944E0FCE
S1131D2088F09F5798F0B92F9927B751B0F0E1F098
S1131D30660F771F881F991F1AF0BA95C9F714C048
S1131D40B13091F00E94680FB1E008950C94680FCF
S1131D50672F782F8827B85F39F0B93FCCF3869581
S1131D6077956795B395D9F73EF4909580957095DE
S1131D7061957F4F8F4F9F4F0895E89409C097FB5B
S1131D803EF490958095709561957F4F8F4F9F4F4E
S1131D909923A9F0F92F96E9BB279395F695879592
S1131DA077956795B795F111F8CFFAF4BB0F11F455
S1131DB060FF1BC06F5F7F4F8F4F9F4F16C08823FC
S1131DC011F096E911C0772321F09EE8872F762F32
S1131DD005C0662371F096E8862F70E060E02AF073
S1131DE09A95660F771F881FDAF7880F969587955F
S1131DF097F90895990F0008550FAA0BE0E8FEEF34
S1131E0016161706E807F907C0F012161306E407BA
S1131E10F50798F0621B730B840B950B39F40A26B3
S1131E2061F0232B242B252B21F408950A2609F491
S1131E30A140A6958FEF811D811D089597F99F6795
S1131E4080E870E060E008959FEF80EC089500243E
S1131E500A941616170618060906089500240A940B
S1131E6012161306140605060895092E0394000C91
S1131E7011F4882352F0BB0F40F4BF2B11F460FF20
S1131E8004C06F5F7F4F8F4F9F4F089557FD905849
S1131E90440F551F59F05F3F71F04795880F97FB2A
S1131EA0991F61F09F3F79F08795089512161306E4
S1131EB01406551FF2CF4695F1DF08C01616170613
S1131EC01806991FF1CF8695710561050894089548
S1131ED0E894BB2766277727CB0197F908950E94DA
S1131EE0820F0C94350F0E94270F38F00E942E0F9A
S1131EF020F0952311F00C941E0F0C94240F112440
S1131F000C94690F0E94460F70F3959FC1F3950FCF
S1131F1050E0551F629FF001729FBB27F00DB11D69
S1131F20639FAA27F00DB11DAA1F649F6627B00DF9
S1131F30A11D661F829F2227B00DA11D621F739FE2
S1131F40B00DA11D621F839FA00D611D221F749FF0
S1131F503327A00D611D231F849F600D211D822F37
S1131F60762F6A2F11249F5750409AF0F1F088235E
S1131F704AF0EE0FFF1FBB1F661F771F881F91508B
S1131F805040A9F79E3F510580F00C941E0F0C940D
S1131F90690F5F3FE4F3983ED4F386957795679590
S1131FA0B795F795E7959F5FC1F7FE2B880F911DB5
S1131FB09695879597F9089597FB072E16F4009444
S1131FC007D077FD09D00E94181007FC05D03EF415
S1131FD0909581959F4F0895709561957F4F0895D1
S1131FE0A1E21A2EAA1BBB1BFD010DC0AA1FBB1F19
S1131FF0EE1FFF1FA217B307E407F50720F0A21B8B
S1132000B30BE40BF50B661F771F881F991F1A94F7
S113201069F760957095809590959B01AC01BD0121
S1132020CF010895EE0FFF1F0590F491E02D099460
S1132030AA1BBB1B51E107C0AA1FBB1FA617B707EA
S113204010F0A61BB70B881F991F5A95A9F7809506
S11320509095BC01CD010895AEE0B0E0E2E3F0E17B
S11320600C94ED120D891E8986E08C831A830983F2
S11320708FEF9FE79E838D83AE01475E5F4F6F892D
S1132080788DCE0101960E944E10EF81F885E00F05
S1132090F11F10822E96E4E00C940913ABE0B0E03B
S11320A0E4E5F0E10C94DF126C017B018A01FC0190
S11320B017821682838181FFCCC1CE0101963C0137
S11320C0F6019381F70193FD859193FF81917F013F
S11320D0882309F4BAC1853239F493FD859193FFBD
S11320E081917F01853229F4B60190E00E94451266
S11320F0E7CF912C212C312CFFE1F315D8F08B3252
S113210079F038F4803279F08332A1F4232D206100
S11321101DC08D3261F0803369F4232D216016C017
S1132120832D8260382EE32DE4603E2E2AC0F32DE9
S1132130F8601DC037FC2DC020ED280F2A3040F078
S11321408E32B9F436FC81C1232D2064322E19C09D
S113215036FE06C08AE0989E200D1124922E11C0EE
S1132160EAE02E9E200D1124222EF32DF0623F2E44
S113217008C08C3621F4832D8068382E02C088363E
S113218041F4F70193FD859193FF81917F018111C2
S1132190B3CF982F9F7D9554933028F40C5F1F4F35
S11321A09FE399830DC0833631F0833771F0833513
S11321B009F059C021C0F801808189830E5F1F4F47
S11321C088248394912C530113C02801F2E04F0E0C
S11321D0511CF801A080B18036FE03C0692D70E067
S11321E002C06FEF7FEFC5010E943A124C018201D9
S11321F0F32DFF773F2E16C0280122E0420E511C1A
S1132200F801A080B18036FE03C0692D70E002C0E1
S11322106FEF7FEFC5010E942F124C01F32DF06880
S11322203F2E820133FC1BC0822D90E08816990654
S1132230B0F4B60180E290E00E9445122A94F4CFF3
S1132240F50137FC859137FE81915F01B60190E07D
S11322500E94451221102A9421E0821A91088114C7
S1132260910471F7E8C0843611F0893641F5F8011C
S113227037FE07C060817181828193810C5F1F4F9B
S113228008C060817181072E000C880B990B0E5FCA
S11322901F4FF32DFF763F2E97FF09C09095809531
S11322A0709561957F4F8F4F9F4FF0683F2E2AE0C6
S11322B030E0A3010E948112882E861845C085371C
S11322C031F4232D2F7EB22E2AE030E025C0932D49
S11322D0997FB92E8F36C1F018F4883579F0B5C0DE
S11322E0803719F0883721F0B0C0E92FE061BE2EA5
S11322F0B4FE0DC0FB2DF460BF2E09C034FE0AC02D
S1132300292F2660B22E06C028E030E005C020E167
S113231030E002C020E132E0F801B7FE07C060817E
S11323207181828193810C5F1F4F06C0608171812E
S113233080E090E00E5F1F4FA3010E948112882E5F
S11323408618FB2DFF773F2E36FE0DC0232D2E7FE2
S1132350A22E891458F434FE0BC032FC09C0832D1C
S11323608E7EA82E05C0B82CA32C03C0B82C01C0A7
S1132370B92CA4FE0FC0FE01E80DF11D808180334D
S113238021F49A2D997EA92E09C0A2FE06C0B39409
S1132390B39404C08A2D867809F0B394A3FC11C0C9
S11323A0A0FE06C0B21488F4280C922C9B180EC010
S11323B0B21460F4B60180E290E00E944512B39436
S11323C0F7CFB21418F42B1802C0982C212CA4FEB9
S11323D010C0B60180E390E00E944512A2FE17C02F
S11323E0A1FC03C088E790E002C088E590E0B60154
S11323F00CC08A2D867859F0A1FE02C08BE201C080
S113240080E2A7FC8DE2B60190E00E944512891497
S113241038F4B60180E390E00E9445129A94F7CF15
S11324208A94F301E80DF11D8081B60190E00E94C9
S113243045128110F5CF222009F442CEB60180E284
S113244090E00E9445122A94F6CFF6018681978186
S113245002C08FEF9FEF2B96E2E10C94FB12FC017C
S11324600590615070400110D8F7809590958E0FBB
S11324709F1F0895FC016150704001900110D8F72E
S1132480809590958E0F9F1F08950F931F93CF9360
S1132490DF93FB01238121FD03C08FEF9FEF2CC04D
S11324A022FF16C046815781248135814217530784
S11324B044F4A081B1819D012F5F3F4F318320837C
S11324C08C93268137812F5F3F4F3783268314C037
S11324D08B01EC01FB010084F185E02D0995892B2A
S11324E0E1F6D80116968D919C911797019617964F
S11324F09C938E931697CE01DF91CF911F910F91EC
S11325000895FA01AA27283051F1203181F1E89485
S11325106F936E7F6E5F7F4F8F4F9F4FAF4FB1E0D2
S11325203ED0B4E03CD0670F781F891F9A1FA11DCD
S1132530680F791F8A1F911DA11D6A0F711D811DCE
S1132540911DA11D20D009F468943F912AE0269F93
S113255011243019305D3193DEF6CF010895462FF2
S11325604770405D4193B3E00FD0C9F7F6CF462FD3
S11325704F70405D4A3318F0495D31FD405241933C
S113258002D0A9F7EACFB4E0A695979587957795F9
S11325906795BA95C9F700976105710508959B0180
S11325A0AC010A2E06945795479537952795BA9509
S11325B0C9F7620F731F841F951FA01D08952F92E2
S11325C03F924F925F926F927F928F929F92AF92BF
S11325D0BF92CF92DF92EF92FF920F931F93CF930C
S11325E0DF93CDB7DEB7CA1BDB0B0FB6F894DEBFA3
S11325F00FBECDBF09942A88398848885F846E84C9
S11326007D848C849B84AA84B984C884DF80EE8012
S1132610FD800C811B81AA81B981CE0FD11D0FB61B
S1132620F894DEBF0FBECDBFED010895F894FFCF3F
S113263025750077656C636F6D6520746F206D7907
S11326400067726164756174696F6E2070726F6A7D
S11326506563740077697468002D2D2D2D2D2D2D43
S11326602D414D49542D2D2D2D2D2D2D2D002D2D4C
S11326702D2D2D50574D5F4452415745522D2D2D30
S11326802D2D0042593A2041484D454420414C49A2
S11326900074696D65203D20006D73002D2D2D2D76
S11326A02D2D2D2D2D00546F6E3D200020546F666E
S11326B0663D20002D2D2D2D2D2D2D2D2D7C5F7C67
S11326C0002D2D2D2D2D2D2D2D7C5F5F7C002D2D8E
S11326D02D2D2D2D2D7C5F5F5F7C002D2D2D2D2D1F
S11326E02D7C5F5F5F5F7C002D2D2D2D2D7C5F5F2A
S11326F05F5F5F7C002D2D2D2D7C5F5F5F5F5F5FD3
S11327007C002D2D2D7C5F5F5F5F5F5F5F7C002D04
S11327102D7C5F5F5F5F5F5F5F5F7C002D7C5F5F31
S11327205F5F5F5F5F5F5F7C005F5F5F5F5F5F5FF7
S11327305F00667265713D00485A00647574793DA6
S1072740002500006C
S9030000FC
